:020000040800F2
:10000000400F0020614F0008290700082B07000857
:100010002F0700083307000837070008000000001A
:100020000000000000000000000000003B07000886
:100030003D070008000000003F07000841070008D6
:100040007B4F00087B4F00087B4F00087B4F000868
:100050007B4F00087B4F00087B4F00087B4F000858
:100060007B4F00087B4F00087B4F00087B4F000848
:100070007B4F00087B4F00087B4F00087B4F000838
:100080007B4F00087B4F00087B4F00087B4F000828
:100090007B4F00087B4F00087B4F00087B4F000818
:1000A0007B4F00087B4F00087B4F00087B4F000808
:1000B000EB4A0008C30A00081B0D00087B4F00082C
:1000C0007B4F00087B4F00087B4F00087B4F0008E8
:1000D0007B4F0008D74E0008654B00087B4F000897
:1000E0007B4F00087B4F00087B4F00087B4F0008C8
:1000F0007B4F00087B4F00087B4F00087B4F0008B8
:100100007B4F00087B4F00087B4F00087B4F0008A7
:100110007B4F00087B4F0008874A0008C74A000849
:100120007B4F00087B4F00087B4F00087B4F000887
:1001300000F002F800F090F80AA090E8000C824469
:100140008344AAF10107DA4501D100F085F8AFF246
:10015000090EBAE80F0013F0010F18BFFB1A43F0A5
:100160000103184778C3000098C30000103A24BF69
:1001700078C878C1FAD8520724BF30C830C144BF0C
:1001800004680C607047000000230024002500264E
:10019000103A28BF78C1FBD8520728BF30C148BFEA
:1001A0000B6070476E2907F04780702906F0318692
:1001B000662909F00A86652909F00786672909F08A
:1001C00004866129AFF3008003681B0A28BF41F051
:1001D0008001692906F0A285642906F09F857529AA
:1001E00006F09C856F2907F03F81782906F0FD8590
:1001F000E92907F0D980E42907F0D680F52907F02E
:10020000D380EF2907F03C81F82906F0FC850368CC
:10021000DB0928BF41F08001632907F0488073297A
:1002200007F04D80E32907F0B783F32907F0BC837B
:10023000002070471FB507F039FC040000200021A2
:1002400008F0B4FC401C60600020002108F098FC1D
:10025000E0601FBD10B510BD07F0FAFB1146FFF7B7
:10026000E9FF00F02FF907F0D3FC03B4FFF7F2FF2A
:1002700003BC04F0D5FD00002DE9F05FDCA70FF210
:1002800078380FF280390FF2843A0FF2883BE24857
:100290000288E249384606F08BFE84B204B9012692
:1002A000DD480288DD49404606F082FE84B204B98A
:1002B0000226D9480288D949484606F079FE84B218
:1002C00004B90326D4480288D449504606F070FE8B
:1002D00084B204B90426D0480288D049584606F0B2
:1002E00067FE84B204B90526062E4BD2DFE806F07D
:1002F0004A0312212F3DCAA004F0FEFC0020C94988
:100300000860FA20C8490860C84908600020C84948
:10031000086037E0C7A004F0EFFCFA20C14908608C
:100320000020C1490860C1490860FA20C04908603E
:1003300028E0C1A004F0E0FCFA20BA4908600020DF
:10034000B9490860B9490860B94908601AE0BBA01A
:1003500004F0D2FC0020B3490860B3490860B349F7
:100360000860FA20B24908600CE0B5A004F0C4FCB3
:100370000020AC490860AC490860AC490860AC4951
:10038000086000BF00BF002504E00020A3494855D5
:10039000681C85B2152DF8DBBDE8F09F10B5A948A3
:1003A000008800F4004008B3A6480088C0F30D00A0
:1003B00099490880002411E0A348005D9749085539
:1003C000A148015DA1A004F097FC00BF4021A04816
:1003D00006F08CFA0128F9D1601C84B28E4800889E
:1003E0008442E9DB00209749088001E0052010BD28
:1003F0000020FCE710B5002096490860472140F234
:10040000CF7000F00BFC10BD70B50546002000F069
:10041000C9FA0446012C2CD18FA004F06DFC4FF4D6
:100420007A7004F0D0FC4FF47A7004F0CCFC4FF4F6
:100430007A7004F0C8FC8BA004F05EFC4FF47A7074
:1004400004F0C1FC4FF47A7004F0BDFC4FF47A70F4
:1004500004F0B9FC87A004F04FFC4FF47A7004F06C
:10046000B2FC4FF47A7004F0AEFC4FF47A7004F0F2
:10047000AAFC022C20D189A004F03EFC4FF47A7033
:1004800004F0A1FC4FF47A7004F09DFC4FF47A70F4
:1004900004F099FC8CA004F02FFC4FF47A7004F067
:1004A00092FC4FF47A7004F08EFC4FF47A7004F0F2
:1004B0008AFC89A004F020FC032C01D1002070BD2F
:1004C0000120FCE708B501244FF4A06004F068FDAA
:1004D0004FF4E13004F0B3FC4FF4E13004F095FB4D
:1004E00004F034FC00F01EFA00F032FE00F040FA96
:1004F00001F0B1F800F0BEFB002141F61F4000F012
:10050000F3FA472141F2873000F05CFB0C2376A21E
:100510000021084600F0EDFD0C2375A20D210020FE
:1005200000F0E7FD0C2373A20D21402000F0E1FD57
:100530000C2371A21A21002000F0DBFD0C236FA216
:100540002721002000F0D5FD0C236EA232210020CF
:1005500000F0CFFD0C236DA23221442000F0C9FD34
:1005600000F050FC00BF2046FFF74EFF0028FAD1F4
:100570000AE00C2367A20021162000F0BAFD00F06B
:1005800041FCC82004F01FFC03F064F90028F0D1FE
:100590002DE06248006809F025FA05460C20032387
:1005A0002A4627210090182000F059FD0C20032333
:1005B00000905B48B0F9002032211E2000F04FFD72
:1005C0000C2003230090574832210268562000F087
:1005D00046FD00F017FCFFF70DFF07E0FFF7DEFE1A
:1005E000FFF74AFE4FF47A7004F0EDFBF6E7D0E730
:1005F000666F7277617264006261636B77617264C7
:10060000000000006C656674000000007269676895
:100610007400000031313100340000203600002029
:10062000310D0A009C000020A0000020A400002042
:10063000A8000020320D0A00330D0A00340D0A0014
:10064000350D0A00C0000020880600202563000048
:10065000004400402C00002041542B5253540D0DF7
:100660000A00000041542B43574D4F44453D310D86
:100670000D0A000041542B43574A41503D2254502B
:100680002D4C494E4B5F313335222C2231393739CD
:1006900031393834220D0D0A0000000041542B433B
:1006A000495053544152543D22544350222C22313C
:1006B00039322E3136382E312E3630222C3132332B
:1006C000340D0D0A0000000041542B4349504D4F9A
:1006D00044453D310D0D0A0041542B4349505345CB
:1006E0004E440D0D0A0000006D70753A6F6E0000EB
:1006F000503A0000493A0000443A000070697463BF
:10070000683A00006779726F783A000050574D3AA6
:10071000000000006572726F720000000C00002083
:1007200020000020AC000020704700BFFEE700BFA3
:10073000FEE700BFFEE700BFFEE770477047704767
:10074000704700000CB50020019000906C480068D4
:1007500040F480306A49086000BF6948006800F4CE
:10076000003000900198401C0190009818B9019841
:10077000B0F5A06FF1D16248006800F4003010B10C
:100780000120009001E0002000900098012843D152
:100790005C48006840F010005A490860084600684C
:1007A00020F0030008600846006840F0020008607E
:1007B00053484068524948600846406848600846C7
:1007C000406840F4806048600846406820F47C102F
:1007D00048600846406840F4E810486008460068F1
:1007E00040F08070086000BF4548006800F000706D
:1007F0000028F9D04248406820F003004049486092
:100800000846406840F00200486000BF3C4840682D
:1008100000F00C000828F9D10CBD10B5FFF792FFCD
:1008200010BD10B53648006840F00100344908603A
:100830000846406834490840314948600846006825
:10084000324908402E4908600846006820F480209C
:1008500008600846406820F4FE0048604FF41F001E
:100860008860FFF7DAFF4FF000602949086010BD8B
:1008700010B5002100200022214B5B6803F00C0121
:1008800021B1042906D0082928D107E0214B224CA8
:10089000236027E01F4B204C236023E0184B5B684C
:1008A00003F47010164B5B6803F48032022303EBF1
:1008B000904022B9194B4343174C23600DE0104B75
:1008C0005B6803F4003323B1144B4343124C2360A1
:1008D00003E0104B4343104C236003E00D4B0E4CE0
:1008E000236000BF00BF064B5B68C3F303130C4CCF
:1008F000E15C094B1B68CB40074C236010BD000036
:1009000000100240002002400000FFF8FFFFF6FE4A
:1009100008ED00E000127A004C00002000093D00C4
:100920005000002008B50121482004F0C3FE20201B
:10093000ADF8000010208DF8030003208DF80200B0
:100940006946094804F0FAFB2021074804F0A3FC9B
:100950002020ADF800006946044804F0EFFB202198
:10096000024804F098FC08BD000C0140001801404A
:1009700008B50121442004F09DFE1C20ADF80000C4
:1009800048208DF803006946354804F0D7FB012064
:10099000ADF8000028208DF803006946314804F0C6
:1009A000CDFB08BD10B5044614B101202E490870D6
:1009B0002D480078002837D01021294804F051FC38
:1009C00078B10821264804F04CFC50B10421244899
:1009D00004F047FC28B10121224804F042FC012820
:1009E00022D10A2004F0EFF900201F4908701021DD
:1009F0001B4804F036FC08B9012010BD0821184836
:100A000004F02FFC08B90220F7E70421144804F091
:100A100028FC08B90320F0E70121124804F021FC6A
:100A200001281BD10420E8E710210D4804F019FC2F
:100A3000012813D108210A4804F013FC01280DD124
:100A40000421074804F00DFC012807D101210548C5
:100A500004F007FC10B90120034908700020CCE71E
:100A60000018014000080140600000207FB50546E5
:100A70000C460121022004F02AFEADF80850ADF822
:100A800004400020ADF80A00ADF8060001A9C148F5
:100A900004F048FF01221146BE4805F0BAFA1D20B5
:100AA0008DF8000001208DF801008DF802008DF80E
:100AB0000300684604F079FA0121B64805F08EFA81
:100AC0007FBD10B50121B34805F051FD58B101219A
:100AD000B04805F05DFDB048006808B9012000E0AD
:100AE0000020AD49086010BD30B589B005460C4600
:100AF0000121022004F0EBFD0121092004F0DAFDC0
:100B00000121052004F0D6FDC020ADF820001820FA
:100B10008DF8230003208DF8220008A99F4804F0D7
:100B20000DFBC0219D4804F0B8FB0320ADF8200068
:100B300018208DF8230003208DF8220008A998487A
:100B400004F0FCFA0321964804F0A7FBADF8185016
:100B5000ADF814400020ADF81A00ADF8160005A954
:100B60008C4804F0DFFE7020ADF804000120ADF8E1
:100B700006000020ADF80C0001A9864804F00FFF24
:100B80000821844805F05AFB01A9824804F049FF76
:100B90000821804805F05BFB01A97E4804F08EFF28
:100BA00008217C4805F060FB01A97A4804F0D1FFD8
:100BB0000821784805F061FB0121764805F00EFA1E
:100BC00009B030BD7FB505460C460121102004F068
:100BD0007EFDADF80850ADF804400020ADF80A00E5
:100BE000ADF8060001A96F4804F09CFE01221146F1
:100BF0006C4805F00EFA36208DF8000003208DF8C1
:100C000001008DF8020001208DF80300684604F011
:100C1000CCF90121634805F0E1F97FBD7FB50546B8
:100C20000C460121202004F052FDADF80850ADF82B
:100C300004400020ADF80A00ADF8060001A95A48AA
:100C400004F070FE01221146574805F0E2F9372002
:100C50008DF8000003208DF801008DF802000120BE
:100C60008DF80300684604F0A0F901214E4805F014
:100C7000B5F97FBD00B587B00121084604F027FD16
:100C80004FF6FF70ADF814004720ADF810000020BB
:100C9000ADF81600ADF8120004A94FF0804004F042
:100CA00041FE0020ADF80400ADF806000120ADF8CB
:100CB00008000020ADF80A00ADF80C0001A94FF0C3
:100CC000804005F0C2F81C208DF8000003208DF84C
:100CD00001008DF8020001208DF80300684604F041
:100CE00064F901220221480705F093F901218807E0
:100CF00005F074F907B000BD10B5044644B10021F9
:100D00002A4805F0FFFB0121284805F067F903E0B8
:100D10000021264805F062F910BD10B501212348D5
:100D200005F025FC60B12248008840F400402049CD
:100D3000088001211D4805F02BFC0020FFF7DCFF97
:100D400010BD7FB505460C460121042004F0BFFC10
:100D5000ADF80450ADF800400020ADF80600ADF845
:100D600002006946114804F0DDFD012211460F48DA
:100D700005F04FF91E208DF80C0001208DF80D00B4
:100D800002208DF80E0001208DF80F0003A804F05A
:100D90000CF97FBD0004004094012342000801408B
:100DA000000C01400010004000140040000800400A
:100DB000C000002010B5FE4B19600023FD4CC4F8A4
:100DC0009831002214E00023FB4C236000F08003E4
:100DD0001BB10123241D236003E00023F64C241DD6
:100DE00023600123F44C23604306180E531CDAB22F
:100DF000082AE8DB0123EE4C0C342360ED4CC4F8E8
:100E00008C3110BD30B500241CE004F1B001C8B233
:100E10000021FFF7CFFF00210846FFF7CBFF00219D
:100E20001020FFF7C7FF002508E0E44901EBC501EA
:100E3000085D0121FFF7BEFF681CC5B2802DF4DB01
:100E4000601CC4B2082CE0DB30BD00B500218D2051
:100E5000FFF7B0FF00211420FFF7ACFF0021AF2007
:100E6000FFF7A8FF00BD00B500218D20FFF7A2FF0E
:100E700000211020FFF79EFF0021AE20FFF79AFF10
:100E800000BD30B500240CE0002506E00020CB4971
:100E900001EBC5010855681CC5B2802DF6DB601C4E
:100EA000C4B2082CF0DBFFF7ADFF30BDF0B514463F
:100EB00000267F2801DC3F2900DDF0BD0B46CF175F
:100EC00001EB5777FF10C7F10707FAB2CF1701EB15
:100ED0005777FF10A1EBC707FDB2C5F10707012344
:100EE000BB40DEB24CB1B54B03EBC0039B5C33435C
:100EF000B24F07EBC007BB5408E0B04B03EBC00395
:100F00009B5CB343AD4F07EBC007BB5400BFD4E7B6
:100F10002DE9F04706460F4690469946DDF820A099
:100F200034460CE03D4606E0524629462046FFF78F
:100F3000BDFF681CC5B24D45F6DD601CC4B244451A
:100F4000F0DDFFF75FFFBDE8F0872DE9F84F804641
:100F50000F4616461C46BA462046E31704EB537369
:100F6000DB1021464FEAE47C04EB5C7C4FEAEC0C9E
:100F7000A4EBCC0CBCF1000F02D04FF0010C01E04F
:100F80004FF0000C6344224604EBD27C4FEA6C0C19
:100F900003FB0CF303F0FF0BA6F12000C6B2002503
:100FA0004EE00C2C07D106EB4600854901EB800092
:100FB000405D009013E0102C05D1824800EB061034
:100FC000405D00900BE0182C07D106EBC6007E496F
:100FD00001EB8000405D009001E0BDE8F88F4FF02C
:100FE000000927E0009800F0800028B1394640460B
:100FF0000A9AFFF75BFF09E00A9808B9012000E0B0
:101000000020024639464046FFF750FF0098400650
:10101000000E0090781CC7B2A7EB0A00A04205D1D1
:10102000574608F1010000F0FF0806E009F1010051
:1010300000F0FF09B9F1080FD4DB00BF681CC5B28E
:101040005D45AEDB00BFC8E710B50246012000E0F9
:1010500050430B1EA1F10104E1B2F9D110BD2DE9FD
:10106000FF4F81B0074691461E460E9D4FF0000A85
:10107000002439E0301B401EC1B20A20FFF7E4FF14
:10108000B9FBF0F00A21B0FBF1F201FB1208BAF152
:10109000000F16D1701EA04213DDB8F1000F0ED163
:1010A0000120AB4605EBDB71491001FB0471009098
:1010B000C8B22B4620220299FFF747FF12E04FF0FB
:1010C000010A0120AB4605EBDB71491001FB0471FD
:1010D0000090C8B208F13001CAB22B460299FFF75E
:1010E00034FF00BF601CC4B2B442C3DB05B0BDE82E
:1010F000F08FF8B506460F4615461C4621E004EB76
:10110000D4714910C1F18001B14202DA00263819C8
:10111000C7B2C4F14000B84204DA002006460746D0
:10112000FFF7AFFE012000902A782346394630466B
:10113000FFF70BFF204604EBD07106EB6101CEB246
:101140006D1C28787E2802DC28782028D7DAF8BDA4
:1011500008B501214FF4987004F0ACFA4820ADF8BE
:10116000000010208DF8030003208DF8020069466E
:10117000164803F0E3FF4821144804F08CF80320DC
:10118000ADF800006946124803F0D8FF032110486B
:1011900004F081F84FF40040ADF8000069460D48B6
:1011A00003F0CCFF4FF400410A4804F074F813E058
:1011B0008C8122420080224280012242E4000020F1
:1011C000BE9E000832A3000822A9000800140140B6
:1011D000001001400020014001203B4908603B49CC
:1011E000C1F88C0100203A490860642003F0EBFD4F
:1011F00001203849C1F8BC010021AE20FFF7DAFD1B
:101200000021D520FFF7D6FD00215020FFF7D2FDA9
:101210000021A820FFF7CEFD00213F20FFF7CAFDE7
:101220000021D320FFF7C6FD00210846FFF7C2FDCD
:1012300000214020FFF7BEFD00218D20FFF7BAFD01
:1012400000211420FFF7B6FD00212020FFF7B2FD9A
:1012500000210220FFF7AEFD0021A120FFF7AAFD2B
:101260000021C020FFF7A6FD0021DA20FFF7A2FD34
:1012700000211220FFF79EFD00218120FFF79AFD3B
:101280000021EF20FFF796FD0021D920FFF792FD06
:101290000021F120FFF78EFD0021DB20FFF78AFD02
:1012A00000213020FFF786FD0021A420FFF782FDFA
:1012B0000021A620FFF77EFD0021AF20FFF77AFD79
:1012C000FFF7DFFD08BD0000988122420080224226
:1012D000BC0124420000244210B5022003F04FFD5F
:1012E00010BD08B50121082004F0E4F94FF4406076
:1012F000ADF8000010208DF8030003208DF80200E7
:1013000069468D4803F01AFF4FF440618A4803F0A4
:10131000C2FF08BD10B58848001D006820F4704069
:101320008549091D08600846006840F4405008607F
:101330000120824908608249C1F8A801FFF7CCFF6B
:1013400000207E490860FFF7C7FF00207C49C1F8F4
:10135000A80110BD10B57848001D006820F4704049
:101360007549091D08600846006840F4405008604F
:1013700000207249091F08607149C1F8AC01FFF7EC
:10138000ABFF01206D49091F08606D49C1F8AC0130
:10139000FFF7A2FF10BD10B500246748001D0068CC
:1013A00020F470406449091D08600846006840F454
:1013B00000400860012061490860FFF78DFF0120AF
:1013C0005F49C1F8A801FFF787FF07E0601CC4B2BE
:1013D000FA2C03DDFFF7BEFF012010BD574880380F
:1013E00000680028F2D15549091F086000BFF4E7E2
:1013F00010B500205149091F08604F48001D0068C2
:1014000020F470404C49091D08600846006840F40B
:101410004050086000204A49C1F8AC01FFF75CFF6A
:1014200001204649091F0860FFF756FF0020444984
:10143000C1F8A80110BD10B500204049091F08607F
:101440003D48001D006820F470403B49091D0860BC
:101450000846006840F44050086001203849C1F84F
:10146000AC01FFF739FF01203449091F0860FFF77D
:1014700033FF00203249C1F8A80110BD70B5044601
:101480002D48001D006820F470402B49091D08609C
:101490000846006840F44050086000202749091FB2
:1014A0000860002512E0E009244908606006040E87
:1014B00001202349C1F8A801FFF70EFF00201F49B2
:1014C000091F0860FFF708FF681CC5B2082DEADB9A
:1014D00070BD70B5054600241748001D006820F453
:1014E00070401549091D08600846006840F4004036
:1014F0000860002615E000201049091F0860FFF76A
:10150000EBFE01200E49C1F8A8016006040E0B484D
:101510008038006808B1601CC4B2FFF7DDFE701CA3
:10152000C6B2082EE7DB15B9FFF785FF01E0FFF72C
:101530005FFF204670BD0000000C0140AC812142DD
:101540000080214270B505460C46FFF7E3FED0202F
:10155000FFF794FFFFF71FFF18B1FFF7FBFE012015
:1015600070BD2846FFF78AFFFFF715FF2046FFF7FB
:1015700085FFFFF710FF18B1FFF7ECFE0120EFE742
:10158000FFF7E8FE0020EBE770B504460025BC2C11
:1015900001DB012510E0622C01DB02250CE02A2C86
:1015A00001DB032508E0142C01DB042504E00A2CF0
:1015B00001DB052500E0062529461A20FFF7C2FFBA
:1015C00070BD70B50446B4F57A7F01DD4FF47A74CE
:1015D000042C00DA04244FF47A7090FBF4F0401EDF
:1015E000C5B229461920FFF7ADFF0546264604EB94
:1015F000D671C1F34F00FFF7C7FF70BD70B5044649
:10160000FFF788FED020FFF739FFFFF7C4FE204622
:10161000FFF734FFFFF7BFFEFFF77CFED120FFF797
:101620002DFFFFF7B8FE0020FFF753FF0546FFF739
:1016300091FE284670BD10B50446E006010E1C2040
:10164000FFF780FF10BD10B50446E006010E1B2019
:10165000FFF778FF10BD38B50121084604F02AF8DD
:101660000121042004F026F84FF40040ADF80000FA
:1016700010208DF8030003208DF802006946814890
:1016800003F05CFD0121804803F029FE00207F4922
:101690000860FFF726FE80216B20FFF753FF6420D0
:1016A00003F091FB00216B20FFF74CFF0320FFF7B5
:1016B000CAFF0020FFF7BFFF4FF47A70FFF781FFEA
:1016C00000213820FFF73EFF00216A20FFF73AFF94
:1016D00000212320FFF736FF80213720FFF732FF5C
:1016E0007520FFF78BFF0446682C0CD101216B207D
:1016F000FFF728FF00216C20FFF724FF4FF47A70DA
:10170000FFF75FFF01E0012038BD0020FCE72DE975
:10171000F04106460F4614461D46FFF7FBFD00212B
:1017200041EA4601C8B2FFF7A9FEFFF734FE20B137
:10173000FFF710FE0120BDE8F0813846FFF79EFE5E
:10174000FFF729FEFFF7E6FD012101EB4601C8B2D4
:10175000FFF794FEFFF71FFE0DE0012C04D10020DF
:10176000FFF7B7FE287003E00120FFF7B2FE2870F4
:10177000601EC4B26D1C002CEFD1FFF7EBFD002002
:10178000D9E72DE9FC4104460D4616466B46062274
:1017900043216820FFF7BBFF0746BFB99DF8010052
:1017A0009DF8001040EA012000B220809DF803005F
:1017B0009DF8021040EA012000B228809DF8050043
:1017C0009DF8041040EA012000B230803846BDE8A0
:1017D000FC812DE9FC4104460D4616466B46062267
:1017E0003B216820FFF793FF0746BFB99DF8010032
:1017F0009DF8001040EA012000B220809DF803000F
:101800009DF8021040EA012000B228809DF80500F2
:101810009DF8041040EA012000B230803846BDE84F
:10182000FC812DE9F04105460E4617469846FFF724
:1018300071FD002141EA4501C8B2FFF71FFEFFF725
:10184000AAFD20B1FFF786FD0120BDE8F0813046FA
:10185000FFF714FEFFF79FFD00240CE018F80400CA
:10186000FFF70CFEFFF797FD18B1FFF773FD01209E
:10187000EBE7601CC4B2BC42F0DBFFF76BFD00205D
:10188000E3E700000008014000023000BC012142F3
:1018900038B50446F74890F82400C0B114B10220CE
:1018A000009001E000200090F24A1268D17BF14ADA
:1018B000526810786B460122FFF7B3FF10B14FF06A
:1018C000FF3038BD9DF80010EA48417423E0E94834
:1018D000807A10B94FF0FF30F3E724B1E548407C3F
:1018E00008B10020EDE714B10120009001E00020D4
:1018F0000090E04A1268D17BDE4A526810786B464D
:101900000122FFF78EFF10B14FF0FF30D9E79DF8AD
:101910000010D84841740020D3E738B500241FE0F8
:10192000D4480068C07AA04204D0D2480068407D04
:10193000A04200D112E0CF49496808786B460122E5
:101940002146FFF7E4FE10B14FF0FF3038BD9DF89F
:1019500000202146C8A005F085F900BF601CC4B274
:10196000C44840680079A042DADC0020EEE770B598
:1019700004460D46BF480068C07AA04204D0BD4866
:101980000068407DA04202D14FF0FF3070BDB948E1
:1019900040680079A04202DC4FF0FF30F6E7B5491D
:1019A000496808782B4601222146FFF7B0FEEDE793
:1019B00038B50446AF4890F82300A04201D100207A
:1019C00038BD14B13020009001E000200090A948FB
:1019D000807C20B19DF8000040F002000090A548F6
:1019E00090F8220020B19DF8000040F080000090A7
:1019F000A04A1268117D9F4A526810786B460122F6
:101A0000FFF70FFF10B14FF0FF30D9E7994880F88A
:101A100023400020D4E738B5044604F0700010B12C
:101A20000120009005E014B10020009001E040206A
:101A30000090904A1268917C8E4A526810786B46EA
:101A40000122FFF7EEFE20B100218A488172481E74
:101A500038BD9DF8000020F0400186480173002049
:101A6000009004F0400020B99DF8000040F0040010
:101A7000009004F0200020B99DF8000040F0020022
:101A8000009004F0100020B99DF8000040F0010023
:101A9000009004F0080020B99DF8000040F03800E4
:101AA0000090744A1268D17C724A526810786B4672
:101AB0000122FFF7B6FE20B100216E488172481E58
:101AC000C6E724B1082C02D00020FFF771FF694857
:101AD000847200210175322003F075F90020B7E708
:101AE00038B504466348807CA04201D1002038BD4F
:101AF000002C46D05F4A126811795E4A526810780D
:101B00006B460122FFF703FE10B14FF0FF30EEE706
:101B10009DF8000020F020000090564A12681179CC
:101B2000544A526810786B460122FFF77AFE10B1D2
:101B30004FF0FF30DBE7032003F045F9022000906F
:101B40004C4890F8220020B19DF8000040F0800041
:101B50000090484890F8230020B19DF8000040F024
:101B600030000090434A1268117D424A5268107852
:101B70006B460122FFF755FE002851D04FF0FF3091
:101B8000B5E73C4A126811793A4A526810786B46B8
:101B90000122FFF7BCFD10B14FF0FF30A7E7354839
:101BA000807A00F0010028B19DF8000040F020008C
:101BB000009004E09DF8000020F0200000902D4AE5
:101BC000126811792B4A526810786B460122FFF790
:101BD00028FE10B14FF0FF3089E7032003F0F3F83F
:101BE000244890F8220010B18020009001E00020ED
:101BF0000090204890F8230020B19DF8000040F0AC
:101C0000300000901B4A1268117D1A4A5268107801
:101C10006B460122FFF705FE10B14FF0FF3066E77B
:101C200014488474002062E708B51248807A10B91D
:101C30004FF0FF3008BD002000900E4A1268D17BA3
:101C40000C4A526810786B460122FFF7EAFD10B18A
:101C50004FF0FF30EEE7074A12685179054A5268A3
:101C600010786B460122FFF7DCFD68B14FF0FF30C2
:101C7000E0E7000064000020252335783A20252382
:101C800035780D0A00000000F84A12681179F74A09
:101C9000526810786B460122FFF7C3FD10B14FF078
:101CA000FF30C7E7F14890F82400002853D00C20FB
:101CB0000090EE4A12681179EC4A526810786B462F
:101CC0000122FFF7AEFD10B14FF0FF30B2E7322036
:101CD00003F079F8C0200090E448807A00F0010019
:101CE00020B19DF8000040F020000090DF4A12680B
:101CF0001179DE4A526810786B460122FFF791FD98
:101D000010B14FF0FF3095E7D848407C10B1022069
:101D1000009001E000200090D44A1268D17BD34AA1
:101D2000526810786B460122FFF77BFD10B14FF02F
:101D3000FF307FE700200090CC4A12685179CB4AEF
:101D4000526810786B460122FFF76BFD002855D0D2
:101D50004FF0FF306EE704200090C44A12681179FA
:101D6000C24A526810786B460122FFF75AFD10B143
:101D70004FF0FF305EE7BD48807C20B9BB48807AD9
:101D800000F0010010B94020009001E060200090B8
:101D9000B64A12681179B54A526810786B4601222A
:101DA000FFF73FFD10B14FF0FF3043E7322003F063
:101DB0000AF8AE48407C10B10120009001E00020FC
:101DC0000090AA4A1268D17BA84A526810786B46E4
:101DD0000122FFF726FD10B14FF0FF302AE7A34A9A
:101DE00012685179A14A52681078A04B1033012231
:101DF000FFF717FD10B14FF0FF301BE7002019E788
:101E000070B50446002624F00104984890F8240098
:101E100008B1002070BD9548807A10B94FF0FF30AE
:101E2000F8E79248057C807A20409049087408467B
:101E3000007CA04202D04FF0FF3600E0002614B92B
:101E40008A48007D18B10120FFF722FD02E0002042
:101E5000FFF71EFD3CB1FFF7E7FE20B18348057494
:101E60004FF0FF30D6E73046D4E738B504467F4818
:101E7000807A10B94FF0FF3038BDBC2C02DB012056
:101E8000009015E0622C02DB0220009010E02A2C6A
:101E900002DB032000900BE0142C02DB04200090F6
:101EA00006E00A2C02DB0520009001E006200090ED
:101EB0006E48C07A9DF80010884201D10020DBE70F
:101EC0006A4A12689178694A526810786B46012212
:101ED000FFF7A7FC10B14FF0FF30CDE79DF80010E1
:101EE0006248C1720020C7E738B50446282C02DDDD
:101EF0004FF0FF3038BDDCB90020FFF759FD00205E
:101F00008DF8000007208DF80100584A1268917C76
:101F1000564A526810786B460222FFF782FC10B1D5
:101F20004FF0FF30E6E70021504801750020E1E75F
:101F30000120FFF73DFD20208DF80000012C06D187
:101F400000208DF801000520FFF78FFF17E0052C1A
:101F500006DC01208DF801000520FFF786FF0EE06A
:101F6000142C06DC02208DF801000A20FFF77DFF0B
:101F700005E003208DF801001420FFF776FF9DF89F
:101F80000100072101EB8010C0B28DF80100374A33
:101F90001268917C354A526810786B460222FFF72E
:101FA00040FC10B14FF0FF30A4E708212F488172A8
:101FB00000210173012101750020FFF721FF00209E
:101FC00098E738B504462948807A10B94FF0FF30B9
:101FD00038BD264890F8240010B14FF0FF30F7E7E5
:101FE0002248007D50B134B1282C04DCE0B2FFF768
:101FF0007BFF0020ECE70020FFF776FF042C01DADE
:10200000042404E0B4F57A7F01DD4FF47A744FF4D0
:102010007A7090FBF4F0401EC0B20090134A126830
:102020005178124A526810786B460122FFF7F9FB8B
:1020300010B14FF0FF30CBE79DF80000401C4FF48B
:102040007A7191FBF0F081B20848C1810146C989DB
:102050004810FFF70AFF0020BAE738B504460348E6
:10206000807A28B94FF0FF3038BD000064000020AE
:10207000022C06D0042C07D0082C08D0102C0CD130
:1020800008E0002000900BE00820009008E01020FD
:10209000009005E01820009002E04FF0FF30E3E7E9
:1020A00000BFF948407A9DF80010B0EBE10F01D174
:1020B0000020D9E7F44A1268D179F34A52681078BF
:1020C0006B460122FFF7ADFB10B14FF0FF30CBE7BD
:1020D0009DF80000C110EC4841720020C4E738B5FB
:1020E0000446E948807A10B94FF0FF3038BDFA2C29
:1020F00009D0B4F5FA7F09D0B4F57A7F09D0B4F5E8
:10210000FA6F0CD108E0002000900BE0082000904E
:1021100008E01020009005E01820009002E04FF049
:10212000FF30E3E700BFD848007A9DF80010B0EB1D
:10213000E10F01D10020D9E7D34A12689179D24A40
:10214000526810786B460122FFF76BFB10B14FF01D
:10215000FF30CBE79DF80000C010CB49087200208B
:10216000C4E71CB580208DF80000C74A1268917C36
:10217000C54A526810786B460122FFF752FB10B136
:102180004FF0FF301CBD642002F01DFE00208DF8D2
:102190000000BD4A1268917CBB4A526810786B46B9
:1021A0000122FFF73EFB10B14FF0FF30EAE7B64ADD
:1021B0001268917DB44A526810786B460622FFF788
:1021C000A6FA10B14FF0FF30DCE79DF80500C0071C
:1021D000400F9DF8031001F0010140EA41009DF815
:1021E000011001F0010140EA010494B1012C03D176
:1021F0000121A548C17431E0022C03D10021A2487D
:10220000C1742BE02146A1A004F02CFD4FF0FF305B
:10221000B8E79D4A1268D1789B4A526810786B469D
:102220000122FFF774FA10B14FF0FF30AAE79DF8D2
:10223000000000F00F042CB99E4804F013FD4FF08D
:10224000FF309FE7042C06D19BA004F00BFD012179
:102250008D48C17402E000218B48C174FF218A4877
:102260008172FF2088490872FF2187484172C1723C
:102270004FF6FF71C181FF21017481740121017347
:1022800080F82210002180F8231041750175163066
:10229000016041608160163880F8241080F82510B4
:1022A000C1844FF4FA60FFF71AFF10B14FF0FF300E
:1022B00068E70220FFF7D1FE10B14FF0FF3061E771
:1022C0002A20FFF7D2FD10B14FF0FF305AE732203D
:1022D000FFF777FE10B14FF0FF3053E70020FFF714
:1022E0008FFD10B14FF0FF304CE70020FFF7F8FBF7
:1022F00010B14FF0FF3045E70020FFF78CFB0020C6
:1023000040E770477CB504460D465F48807A00F090
:10231000700010B94FF0FF307CBD5B4A1268117B32
:10232000594A526810786B460622FFF7F0F910B14F
:102330004FF0FF30F0E79DF801009DF8001040EAF3
:10234000012000B220809DF803009DF8021040EAB1
:10235000012000B260809DF805009DF8041040EA5D
:10236000012000B2A08015B12846FFF7CAFF002067
:10237000D2E77CB504460D464348807A00F0080059
:1023800010B94FF0FF307CBD3F4A1268517B3E4A86
:10239000526810786B460622FFF7B9F910B14FF07A
:1023A000FF30F0E79DF801009DF8001040EA0120A1
:1023B00000B220809DF803009DF8021040EA012041
:1023C00000B260809DF805009DF8041040EA0120ED
:1023D00000B2A08015B12846FFF793FF0020D2E796
:1023E0002DE9FE4F05460C462748807A18B94FF074
:1023F000FF30BDE8FE8F244A1268917B224A526862
:10240000107802AB0222FFF782F910B14FF0FF30D3
:10241000EFE79DF809009DF8081040EA012006B298
:1024200014B12046FFF76DFF17494968C88807F0C7
:1024300011FB154901904968B1F9080007F0F2FA5B
:102440008346304607F0EEFA5946009007F048FC04
:102450008246019907F0B4F981461F4907F042F915
:1024600080464FF08F4107F03DFB074607F09EFA8C
:1024700028600020BDE710B588B004461CB94FF0B5
:10248000FF3008B010BD29E064000020556E737560
:1024900070706F7274656420736F667477617265B3
:1024A0002070726F64756374207265762025642EC7
:1024B0000A0000008CC4000848616C662073656ED9
:1024C0007369746976697479207061727420666FBB
:1024D000756E642E0A00000000000C42206830B9BE
:1024E000606820B9A06810B9002008B010BDFA4992
:1024F0004968087806AB03221146FFF708F910B1C6
:102500004FF0FF30F1E79DF81800082101EB201093
:1025100000F00F00ADF800009DF8190001EB20104D
:1025200000F00F00ADF802009DF81A0001EB20103A
:1025300000F00F00ADF8040020684100BDF9000074
:10254000403091FBF0F000B2ADF81000606841003F
:10255000BDF90200403091FBF0F000B2ADF812007E
:10256000A0684100BDF90400403091FBF0F000B2DA
:10257000ADF81400D8494968087806AB0622114620
:10258000FFF7C5F810B14FF0FF30AEE79DF8190026
:102590009DF8181040EA012000B2ADF808009DF83F
:1025A0001B009DF81A1040EA012000B2ADF80A00A5
:1025B0009DF81D009DF81C1040EA012000B2ADF806
:1025C0000C00BDF81000BDF80810084400B2ADF8CA
:1025D0001000BDF81200BDF80A10084400B2ADF8B2
:1025E0001200BDF81400BDF80C10084400B2ADF89C
:1025F0001400BDF81000000A8DF81800BDF8100096
:10260000C0B28DF81900BDF81200000A8DF81A004A
:10261000BDF81200C0B28DF81B00BDF81400000A0E
:102620008DF81C00BDF81400C0B28DF81D00AA4939
:102630004968087806AB06221146FFF7F2F810B198
:102640004FF0FF3051E700204FE70146A248007AE3
:1026500030B1012807D0022809D003280FD10AE0A1
:10266000FA2008800EE04FF4FA7008800AE04FF478
:102670007A70088006E04FF4FA60088002E00020DB
:10268000088000BF00BF0020704701469248407A92
:1026900030B1012807D0022808D003280CD108E067
:1026A000022008700BE00420087008E00820087081
:1026B00005E01020087002E04FF0FF30704700BFC7
:1026C0008548C07C18B108784006000E08700020CC
:1026D000F4E701468048C07A082817D2DFE800F006
:1026E0001704070A0D101318BC20088013E062209D
:1026F000088010E02A2008800DE0142008800AE0FD
:102700000A20088007E00520088004E000BF00BF21
:102710000020088000BF00BF0020704701466E48BF
:1027200090F8240010B14FF0FF3070476A48C0891C
:1027300008800020F9E7014600200880401E70470D
:1027400001464FF0FF30704701466348007A30B1D0
:10275000012807D0022808D003280CD108E05F48E0
:1027600008600BE05E48086008E05E48086005E02D
:102770005D48086002E04FF0FF30704700BF002066
:10278000FBE701465448407A30B1012808D00228BE
:102790000AD0032810D10BE04FF4804008800EE0EF
:1027A00041F69C7008800AE04FF48050088006E0F3
:1027B0004FF40060088002E04FF0FF30704700BF28
:1027C0004548C07C10B10888401008800020F5E71B
:1027D00001464148007C08700020704701463E4891
:1027E000807A10B10120087001E0002008700020FC
:1027F000704738B504463848807A10B94FF0FF303A
:1028000038BD354A1268117C334A526810786B46DD
:102810000222FEF77CFF10B14FF0FF30F0E79DF889
:1028200001009DF8001040EA012000B22080002045
:10283000E6E72DE9FE4F0746884692461D46DDF83D
:1028400030B000260024244890F8240010B1601E07
:10285000BDE8FE8F002028701F48807A10B94FF025
:10286000FF30F5E71C48007C10B94FF0FF30EFE770
:102870001948007C00F0400008B1B01CC6B21648F0
:10288000007C00F0200008B1B01CC6B21248007CE9
:1028900000F0100008B1B01CC6B20F48007C00F078
:1028A000080008B1B01DC6B20B4A1268917A0A4AF4
:1028B000526810786B460222FEF729FF10B14FF0E4
:1028C000FF30C5E79DF801009DF8001040EA01299E
:1028D000B1450BDA0020BBE7640000200000034391
:1028E000000083423333034233338341FC48406862
:1028F0004088B9EB600F17DDF94A1268517CF84A3D
:10290000526810786B460122FEF701FF10B14FF0BC
:10291000FF309DE79DF8000000F0100020B1FFF7A8
:1029200083F96FF0010093E75046FFF7EAFCEC4AA9
:102930001268D17AEA4A526810786B463246FEF73E
:10294000E6FE10B14FF0FF3082E799FBF6F0401E33
:102950008BF8000000202870B4422AD0E048007CA8
:1029600000F0080028B3601C1DF800001DF80410DA
:1029700040EA012000B2A8F80000E01C1DF8001099
:10298000A01C1DF8000041EA002000B2A8F80200D7
:10299000601D1DF80010201D1DF8000041EA0020F8
:1029A00000B2A8F80400287840F008002870A01DA4
:1029B00084B2B44213D0CA48007C00F0400070B129
:1029C000601C1DF800001DF8041040EA012000B250
:1029D0003880287840F040002870A01C84B2B442AF
:1029E00013D0BF48007C00F0200070B1601C1DF8BF
:1029F00000001DF8041040EA012000B27880287819
:102A000040F020002870A01C84B2B44213D0B44817
:102A1000007C00F0100070B1601C1DF800001DF873
:102A2000041040EA012000B2B880287840F010007D
:102A30002870A01C84B200200AE7F8B504460F46AF
:102A40001646A74890F8240010B94FF0FF30F8BDA3
:102A5000A348807A10B94FF0FF30F8E7A04A126817
:102A6000917A9F4A526810786B460222FEF74FFE19
:102A700010B14FF0FF30EAE79DF801009DF800101B
:102A800040EA0125A54203DA00203070401EDEE74F
:102A9000934840684088B5EB600F17DD904A126894
:102AA000517C8F4A526810786B460122FEF72FFE48
:102AB00010B14FF0FF30CAE79DF8000000F01000A1
:102AC00020B1FFF7B1F86FF00100C0E7E2B2844B2C
:102AD0001B68D97A824B5B6818783B46FEF717FE75
:102AE00010B14FF0FF30B2E795FBF4F0401E3070AC
:102AF0000020ACE701467A4880F822100020704799
:102B00007CB5054676494968087801AB04220D2159
:102B1000FEF7FDFD08B107207CBD9DF80700C0F35E
:102B200001109DF8041001F0E00140EAE1008DF889
:102B300000009DF80700C0F381009DF8051001F02A
:102B4000E00140EAE1008DF801009DF8070000F087
:102B500003009DF8061001F0E00140EAE1008DF865
:102B6000020000241CE01DF8040018B9002045F8FC
:102B7000240013E05B4845F8240006E055F82400E3
:102B8000594906F0AFFF45F824001DF80400401E27
:102B9000C0B20DF804000028F0D100BF601CC4B220
:102BA000032CE0DB0020B7E72DE9FE4F06460F4679
:102BB00000256846FFF7A4FF002442E056F82400F1
:102BC00057F82410A0EB010ABAF1000F01DB5146BF
:102BD00001E0CAF10001084606F024FF83464FF0E9
:102BE0008F4106F0EDFD80465DF82400002106F0DF
:102BF000A9FE16D05DF82410404606F0E1FD82469D
:102C00004FF07E5107F06CF8814629F0004A3748B2
:102C1000416A504607F032F812D20120A040054325
:102C20000EE03248C169404606F028FF05D32F4820
:102C3000016A404607F022F802D20120A040054375
:102C4000641C032CBADB2846BDE8FE8F2DE9FC5F2F
:102C500006460F46002522494968087801AB032241
:102C60000D21FEF754FD10B10720BDE8FC9F9DF833
:102C7000040000F01F008DF804009DF8050000F02E
:102C80001F008DF805009DF8060000F01F008DF86C
:102C90000600002462E056F8240057F82410A0EB48
:102CA000010BBBF1000F01DB594601E0CBF1000144
:102CB000084606F0B7FE4FF08F41009006F080FD09
:102CC000814601A8005DC0B30849086806F0C2FE4D
:102CD00083465946064806F073FD80460FE0000023
:102CE000640000207B14AE3E1D5A843FA8B6000845
:102CF00000B04C45FE49404606F0F4FE804601A86F
:102D0000005D401EC0B201A908550028F2D141461D
:102D1000484606F055FD83464FF07E5106F0E0FF31
:102D200082462AF0004BF3488169584606F0A6FF18
:102D300013D20120A04005430FE0FFE7ED480169F1
:102D4000484606F09BFE05D3EA484169484606F02E
:102D500095FF02D20120A0400543641C032C9ADB9E
:102D6000284682E72DE9F04F87B005460C4691468C
:102D700001208DF8100000208DF81100DE4A126845
:102D8000917CDD4A5268107804AB0222FEF749FDBF
:102D900020B14FF0FF3007B0BDE8F08FC82002F03F
:102DA00012F800208DF81000D34A1268D17BD24A65
:102DB0005268107804AB0122FEF733FD10B14FF0DA
:102DC000FF30E8E7CC4A12685179CB4A5268107854
:102DD00004AB0122FEF725FD10B14FF0FF30DAE71A
:102DE000C54A1268917CC44A5268107804AB01222B
:102DF000FEF717FD10B14FF0FF30CCE7BE4A126866
:102E0000D17DBD4A5268107804AB0122FEF709FD5E
:102E100010B14FF0FF30BEE7B74A12681179B64AD9
:102E20005268107804AB0122FEF7FBFC10B14FF0A2
:102E3000FF30B0E70C208DF81000AF4A126811790E
:102E4000AD4A5268107804AB0122FEF7EAFC10B1DB
:102E50004FF0FF309FE70F2001F0B5FFA648806AD2
:102E6000407A8DF81000A44A12689178A24A5268FC
:102E7000107804AB0122FEF7D4FC10B14FF0FF3004
:102E800089E79D48806A007A8DF810009A4A126896
:102E90005178994A5268107804AB0122FEF7C1FCC0
:102EA00010B14FF0FF3076E7B9F1000F07D092482C
:102EB000806A807A40F0E0008DF8100004E08E48CF
:102EC000806A807A8DF810008B4A126891798A4A5C
:102ED0005268107804AB0122FEF7A3FC10B14FF04A
:102EE000FF3058E7B9F1000F07D08348806AC07AF5
:102EF00040F0E0008DF8100003E07E48C07A8DF8C5
:102F000010007D4A1268D1797B4A5268107804AB70
:102F10000122FEF786FC10B14FF0FF303BE7B9F11C
:102F2000000F02D0C82001F04EFF40208DF81000A5
:102F3000714A12681179704A5268107804AB012204
:102F4000FEF76FFC10B14FF0FF3024E778208DF8CA
:102F50001000694A12685179674A5268107804ABC8
:102F60000122FEF75EFC10B14FF0FF3013E761491C
:102F7000888901F028FF00208DF810005E4A126851
:102F800051795D4A5268107804AB0122FEF749FC82
:102F900010B14FF0FF30FEE6574A1268917A564A58
:102FA0005268107804AB0222FEF7B1FB10B14FF06B
:102FB000FF30F0E69DF811009DF8101040EA012B5B
:102FC0000C209BFBF0F0C6B20020A860686028606F
:102FD000A06060602060824665E0474A1268D17A4E
:102FE000454A5268107804AB0C22FEF790FB10B1F2
:102FF0004FF0FF30CFE69DF811009DF8101040EA29
:10300000012000B2ADF808009DF813009DF81210E1
:1030100040EA012000B2ADF80A009DF815009DF8C5
:10302000141040EA012000B2ADF80C00BDF9081000
:10303000206808442060BDF90A1060680844606098
:10304000BDF90C10A0680844A0609DF817009DF819
:10305000161040EA012000B2ADF800009DF81900FA
:103060009DF8181040EA012000B2ADF802009DF86A
:103070001B009DF81A1040EA012000B2ADF80400D0
:10308000BDF90010286808442860BDF9021068687E
:1030900008446860BDF90410A8680844A8600AF1F3
:1030A000010000F0FF0AB24597DB1248D0F800C0DB
:1030B0002868C117090441EA104107046246002349
:1030C000384603F098FD32460023CDE9020103F0B3
:1030D00092FD28600748D0F800C06868C11709044D
:1030E00041EA1041070462460023384606E000002A
:1030F00054E3853FA8B600086400002003F07BFD80
:1031000032460023CDE9020103F075FD6860FE48F8
:10311000D0F800C0A868C117090441EA10410704AB
:1031200062460023384603F066FD32460023CDE9AF
:10313000020103F060FDA860F348D0F804C02168E4
:10314000C817000440EA11480F04624600233846BD
:10315000414603F050FD32460023CDE9020103F061
:103160004AFD2060E848D0F804C06068C11709042F
:1031700041EA1041070462460023384603F03BFD54
:1031800032460023CDE9020103F035FD6060DE48E0
:10319000D0F804C0A068C117090441EA104107042F
:1031A00062460023384603F026FD32460023CDE96F
:1031B000020103F020FDA060A068002804DDA068E3
:1031C000A0F58030A06003E0A06800F58030A0602A
:1031D0000020E0E538B50446CC4890F82400A04231
:1031E00001D1002038BD24B3C84890F8250010B99B
:1031F0004FF0FF30F6E70020FEF74AFB0020FEF715
:103200006FFCC249C88CFEF7DCFE00200090BF496D
:10321000496808786B4601222321FEF702FB012151
:10322000BA4880F824100120FEF732FBFEF7FCFCC0
:1032300013E00020FEF72CFBB448007C0090B3495B
:10324000496808786B4601222321FEF7EAFA00213B
:10325000AE4880F82410FEF7E7FC0020C2E72DE915
:10326000F04F8DB083460F4602200C90A74890F88F
:10327000240020B10020FFF7ADFF012600E000266A
:1032800003A8FFF7E2F905A8FFF7FFF901A8FFF788
:1032900020FA02A8FFF742FA9C4890F80AA004A876
:1032A000FFF796FA002407E0002239465846FFF758
:1032B00059FD00B902E0641C022CF5DB00BF022CB2
:1032C00001D1002528E0002407E0012206A909A871
:1032D000FFF748FD00B902E0641C022CF5DB00BFDB
:1032E000022C01D1002517E006A93846FFF75CFC47
:1032F00000F0FF0809A95846FFF7A8FC00F0FF09F5
:103300000025B9F1000F01D145F00105B8F1000F1A
:1033100001D145F0020500BFFF207C490872FF2162
:103320007A484172C1724FF6FF71C181FF218172EB
:10333000017401210173BDF80C00FEF7D0FE9DF869
:103340001400FEF78AFEBDF80400FEF78EFDBDF8FE
:103350000800FEF736FE5046FEF75DFB9DF81000B4
:10336000FEF74EFD16B10120FFF734FF28460DB0E1
:10337000BDE8F08FF8B504460D46164616B94FF075
:10338000FF30F8BD6148807A10B94FF0FF30F8E7A0
:1033900020128DF80000E0B28DF801009DF80100C8
:1033A00028445A4949684989884202DD4FF0FF3074
:1033B000E7E7564A1268117E544A526810786B4605
:1033C0000222FEF72EFA10B14FF0FF30D9E7EAB231
:1033D0004E4B1B68597D4D4B5B6818783346FEF7A2
:1033E00020FA10B14FF0FF30CBE70020C9E7F8B565
:1033F00004460D46164616B94FF0FF30F8BD434857
:10340000807A10B94FF0FF30F8E720128DF80000F5
:10341000E0B28DF801009DF8010028443B4949685D
:103420004989884202DD4FF0FF30E7E7374A1268EA
:10343000117E364A526810786B460222FEF7F1F987
:1034400010B14FF0FF30D9E7EAB2304B1B68597D1D
:103450002E4B5B6818783346FEF759F910B14FF0E0
:10346000FF30CBE70020C9E72DE9F04385B00546E2
:103470000E4690469946254890F8250020B14FF019
:10348000FF3005B0BDE8F08316B94FF0FF30F8E724
:10349000002423E0281B102801DD102000E0281B59
:1034A00087B2321939462046FFF764FF10B14FF05A
:1034B000FF30E6E701AA39462046FFF798FF10B132
:1034C0004FF0FF30DDE730193A4601A903F070FDF7
:1034D00010B16FF00100D4E7E01984B2AC42D9DB3F
:1034E0004FEA28208DF8000008F0FF008DF8010059
:1034F000064A1268917E054A526810786B4602228D
:10350000FEF78FF938B103E0A8B600086400002088
:103510004FF0FF30B5E70121FE4880F82510A0F8F4
:1035200026900020ADE70146FA4890F82400087084
:10353000002070474FF0FF30704702464FF0FF30D9
:10354000704701464FF0FF307047F8B505460F460B
:103550001446002C70D0B5F5FF5F01DDFF2605E0B5
:10356000202D01DA012601E0C5F3471607B901272E
:10357000282C02DD4FF0FF30F8BDE648407D28BB27
:10358000E44890F8240038B10020FFF723FE012121
:10359000E04880F8201003E00021DE4880F8201089
:1035A000DC481630FFF751F8DA481830FFF76DF8AD
:1035B000D8481A30FFF78DF8D6481C30FFF7AEF820
:1035C000D448817A81771F30FFF702F90020FEF797
:1035D0005FF90020FEF788FC00208DF80000CD4A3E
:1035E00012689178CB4A526810786B460122FEF738
:1035F00018F910B14FF0FF30BEE740208DF8000001
:10360000C44A1268D17BC34A526810786B460122C3
:10361000FEF707F900B165E08DF800608DF80170E4
:10362000BC4A1268117ABB4A526810786B46022273
:10363000FEF7F7F808B155E047E0052001F0C3FBBD
:10364000B448407A072101EBC000C0B28DF80000F9
:10365000B04A1268D179AF4A526810786B4601229D
:10366000FEF7DFF800B13DE020208DF80000012CCE
:1036700003D100208DF801000EE0052C03DC0120B1
:103680008DF8010008E0142C03DC02208DF8010005
:1036900002E003208DF801009DF80100072101EBF5
:1036A0008010C0B28DF801009A4A1268917C994A44
:1036B000526810786B460222FEF7B3F800B111E0B1
:1036C000012194484175002056E7924A16320021A4
:1036D00003E0505C00B105E0491C0C29F9D34FF020
:1036E000FF3049E7FF208B490872FF21894841726A
:1036F000C1724FF6FF71C181FF21817201740121F6
:1037000001730146887FFEF786F98249C88AFEF771
:10371000E6FC8049087EFEF7A0FC7E49488BFEF758
:10372000A4FB7C49888BFEF74CFC7A49C87FFEF7E6
:1037300067FB784890F8200010B10120FFF74AFDA0
:10374000002174484175002016E770B588B002A9C1
:1037500005A8FFF784FD0446032C3ED101A8FEF71F
:10376000F3FF059806F05EF90646019906F0BAF9EE
:10377000054606F01BF90590069806F053F9064633
:10378000019906F0AFF9054606F010F90690079882
:1037900006F048F90646019906F0A4F9054606F038
:1037A00005F9079005A800F054FA6846FEF7E9FF0E
:1037B000BDF80010029848430290BDF8001003982D
:1037C00048430390BDF8001004984843049002A8B1
:1037D00000F0D2FA002008B070BD0120FBE70146DE
:1037E00091F90020002A01DD00201EE091F900205F
:1037F000002A01DA042018E091F90120002A01DDF5
:10380000012012E091F90120002A01DA05200CE0E4
:1038100091F90220002A01DD022006E091F9022040
:10382000002A01DA062000E00720704710B50446A0
:103830002046FFF7D4FF0346E01CFFF7D0FF43EA22
:10384000C00083B2A01DFFF7CAFF43EA801083B215
:10385000184610BD70B50024FDF743FDFEF781FC4E
:10386000002840D17820FEF7D6F8C4B20CB1012070
:1038700070BD7820FEF7C4FAC4B20CB10220F7E79D
:103880006420FEF79EFBC4B20CB10320F0E700F009
:1038900045F9C4B20CB10420EAE71F48FFF7C6FFA0
:1038A000054600F045F9C4B20CB10520E0E740F24E
:1038B000731000F07EFDC4B20CB10620D8E764207E
:1038C00000F0F0FAC4B20CB10720D1E7FFF73DFFDA
:1038D00004460CB10820CBE70120FFF77BFCC4B203
:1038E0001CB10920C4E70A20C2E70020C0E72DE987
:1038F000F04F97B04FF07E54002500264FF000099E
:1039000010A811A916AB0CAACDE9001012A914A891
:1039100004E00000640000209000002000F0A8FEF9
:1039200018B1012017B0BDE8F08FBDF8440000F4D5
:10393000807000287ED00C9806F074F807464FF08F
:103940009D4105F03DFF04460D9806F06BF80746D3
:103950004FF09D4105F034FF05460E9806F062F8E1
:1039600007464FF09D4105F02BFF06460F9806F0E5
:1039700059F807464FF09D4105F022FF8146214648
:103980004FF0804006F0AEF83146069006F0AAF8F7
:10399000294608904FF0404006F0A4F849460690AA
:1039A00006F0A0F80790089905F09CFE099005F034
:1039B0006DFECDE90A0104F0B5FD82464FF0663296
:1039C000524B05F089FB074605F006F9504908609F
:1039D00031464FF0804006F085F83146039006F0FE
:1039E00081F8824629464FF0404006F07BF8294690
:1039F000039006F077F88346514606F071F9804649
:103A00004FF07E5105F06EFE074605F03FFECDE912
:103A1000060121464FF0804006F064F883462946AF
:103A200006F060F8804631464FF0804006F05AF8C4
:103A3000834600E067E0494606F054F88246414676
:103A400005F050FE074605F021FECDE90401DDE951
:103A5000062304F0AFFF4FF066322C4BCDE908018E
:103A600005F03AFBCDE90A0105F0B6F829490860EE
:103A70004946484606F036F831460590304606F08D
:103A800031F829460390284606F02CF8214602908A
:103A9000204606F027F80190029905F023FE8346A0
:103AA000039906F01DF90490059906F019F982466C
:103AB00005F0ECFDCDE906014946204606F012F876
:103AC00031460590284606F00DF80490059905F05A
:103AD00009FE83464FF0804106F004F8824605F067
:103AE000D5FD0746DDE9062304F064FF4FF066329A
:103AF000064BCDE9080105F0EFFACDE90A0105F022
:103B00006BF80549086000BF0CE7000066A64C4052
:103B10000C000020100000201400002010B5C82365
:103B20004FF48062F74940F6F630FFF79DFC10BD78
:103B300010B586B00446F4A000680390F3A00068B6
:103B40000290F3A000680190F2A00068009004F0D9
:103B5000030003A9085C8DF8140003A8C4F3C10195
:103B6000405C8DF8150003A8C4F38111405C8DF80A
:103B7000160004F0030002A9085C8DF8100002A8EA
:103B8000C4F3C101405C8DF8110002A8C4F3811197
:103B9000405C8DF8120005AA032140F22640FFF791
:103BA000E9FB18B14FF0FF3006B010BD04AA0321A5
:103BB00040F22A40FFF7DEFB10B14FF0FF30F3E791
:103BC000019805900098049004F0040058B19DF805
:103BD000140040F001008DF814009DF8100040F032
:103BE00001008DF8100004F0200058B19DF8150078
:103BF00040F001008DF815009DF8110040F0010023
:103C00008DF8110004F4807058B19DF8160040F052
:103C100001008DF816009DF8120040F001008DF8AB
:103C2000120005AA03214FF48860FFF7A3FB10B12F
:103C30004FF0FF30B8E704AA032140F23140FFF70C
:103C400099FB10B14FF0FF30AEE7B348048100207C
:103C5000AAE71FB50446B048007A00F0030054F804
:103C600020000190AC48007A00F0040010B10198E7
:103C700040420190A848007AC0F3C10054F82000E7
:103C80000290A548007A00F0200010B1029840424E
:103C90000290A148007AC0F3811054F820000390EC
:103CA0009D48008900F4807010B103984042039051
:103CB0009A49019880FB0101800F40EA8100019040
:103CC0009649029880FB0110820042EA91700290AE
:103CD0009249039880FB0110820042EA91700390A0
:103CE0000198000E8DF800000198000C8DF801007D
:103CF0000198000A8DF802000198C0B28DF8030007
:103D00006A4604214FF47470FFF734FB18B14FF08A
:103D1000FF3004B010BD0298000E8DF8000002982C
:103D2000000C8DF801000298000A8DF8020002983C
:103D3000C0B28DF803006A4604214FF47570FFF796
:103D400019FB10B14FF0FF30E3E70398000E8DF838
:103D500000000398000C8DF801000398000A8DF80C
:103D600002000398C0B28DF803006A4604214FF4A4
:103D70007670FFF7FFFACCE770B588B0064601A869
:103D8000FEF7FFFCBDF804000021C90341EA5045DD
:103D9000C4036148007A00F0030056F82000059043
:103DA0005D48007A00F0040010B10598404205908B
:103DB0005948007AC0F3C10056F8200006905648D2
:103DC000007A00F0200010B1069840420690524858
:103DD000007AC0F3811056F8200007904E48008901
:103DE00000F4807010B10798404207900598C11701
:103DF000A0FB042301FB043100FB0510810041EA14
:103E0000927005900698C117A0FB042301FB0431B2
:103E100000FB0510810041EA927006900798C117D7
:103E2000A0FB042301FB043100FB0510810041EAE3
:103E3000927007900598000E8DF808000598000C08
:103E40008DF809000598000A8DF80A000598C0B29F
:103E50008DF80B000698000E8DF80C000698000CEB
:103E60008DF80D000698000A8DF80E000698C0B275
:103E70008DF80F000798000E8DF810000798000CC1
:103E80008DF811000798000A8DF812000798C0B24B
:103E90008DF8130002AA0C214FF42570FFF76AFA7F
:103EA00008B070BD30B585B004461DA207CA02AB8C
:103EB00007C3C82C03DD4FF0FF3005B030BDC8206C
:103EC00090FBF4F0401E85B2280A8DF80000E8B29D
:103ED0008DF801006A46022140F21620FFF74AFAE7
:103EE00010B14FF0FF30E8E702AA0C2140F6C120E4
:103EF000FFF740FA10B14FF0FF30DEE7064884814B
:103F00000020DAE7D0B600084CCD6C000CC92C00BC
:103F10003656760026466600E404002009E3CA020D
:103F2000FEF2ABC4AAF1DFDFBBAFDFDF0146FC4826
:103F300080890880002070472DE9FC4706460F461F
:103F400006F0070010B1B7F5C86F03DD4FF0FF3082
:103F5000BDE8FC87384605F07DFD8146F14905F056
:103F60002FFC80466846FEF790FB9DF80000022873
:103F700006D0042816D0082826D0102848D135E0CD
:103F80004FF08D41404605F0ADFD814605F02AFD1C
:103F900084B2E549404605F0A5FD814605F022FDC5
:103FA00085B238E04FF08C41404605F09BFD8146DC
:103FB00005F018FD84B2DD49404605F093FD8146C9
:103FC00005F010FD85B226E04FF08B41404605F02C
:103FD00089FD814605F006FD84B2D549404605F0CD
:103FE00081FD814605F0FEFC85B214E04FF08A4168
:103FF000404605F077FD814605F0F4FC84B2CD49DA
:10400000404605F06FFD814605F0ECFC85B202E00C
:104010004FF0FF309CE700BF20128DF80400E0B2A3
:104020008DF8050028128DF80600E8B28DF807001B
:1040300006F00100A0B101AA02214FF4EA70FFF7D7
:1040400099F910B14FF0FF3082E70DF1060202211D
:104050004FF49270FFF78EF910B14FF0FF3077E711
:1040600006F00200A0B101AA02214FF4EC70FFF7A4
:1040700081F910B14FF0FF306AE70DF1060202211D
:104080004FF49470FFF776F910B14FF0FF305FE70F
:1040900006F00400A0B101AA02214FF4EE70FFF770
:1040A00069F910B14FF0FF3052E70DF1060202211D
:1040B0004FF49670FFF75EF910B14FF0FF3047E70D
:1040C000002045E738B504460020009004F00100C8
:1040D00020B19DF8000040F03000009004F0020094
:1040E00020B19DF8000040F00C00009004F00400A6
:1040F00020B19DF8000040F0030000906A460121C5
:104100004FF4A470FFF736F938BD38B50446012CDA
:1041100001DA012402E0042C00DD0424601EC0B298
:1041200000906A46012140F24F10FFF723F938BD95
:1041300038B50446052094FBF0F085B228128DF8BE
:104140000000E8B28DF801006A4602214FF4EF70DA
:10415000FFF710F938BD38B50446052094FBF0F0A0
:1041600085B228128DF80000E8B28DF801006A4689
:1041700002214FF4ED70FFF7FDF838BDF8B50546A4
:104180000E464FF47A7095FBF0F000FB06F4200E1B
:104190008DF80000200C8DF80100200A8DF8020037
:1041A000E0B28DF803006A4604214FF4AE70FFF7C9
:1041B000E1F8F8BD38B50446052094FBF0F084B270
:1041C00020128DF80000E0B28DF801006A4602214D
:1041D0004FF4AD70FFF7CEF838BD38B50446052072
:1041E00094FBF0F084B220128DF80000E0B28DF85C
:1041F00001006A4602214FF4AC70FFF7BBF838BDEE
:1042000038B5044614B94FF0FF3038BD6A46042172
:104210004FF45870FFF7EBF810B14FF0FF30F4E7B0
:104220009DF8000000069DF8011040EA01409DF84D
:10423000021040EA01209DF803100843206000208E
:10424000E3E738B50446200E8DF80000200C8DF809
:104250000100200A8DF80200E0B28DF803006A46E2
:1042600004214FF45870FFF785F838BD38B504467F
:1042700014B94FF0FF3038BD6A4604214FF4717015
:10428000FFF7B5F810B14FF0FF30F4E79DF80000EC
:1042900000069DF8011040EA01409DF8021040EA36
:1042A00001209DF80310084300EB8000800020608F
:1042B0000020E0E738B504461420B4FBF0F4200EEB
:1042C0008DF80000200C8DF80100200A8DF8020006
:1042D000E0B28DF803006A4604214FF47170FFF7D5
:1042E00049F838BD38B5044664B120208DF8000087
:1042F00028208DF8010030208DF8020038208DF83C
:10430000030004E0A3220421684602F09CFE6A46F2
:10431000042140F69E20FFF72DF8FDF785FC38BDFF
:10432000E404002000004843000040460000C0456F
:10433000000040450000C04438B5044664B1C020C8
:104340008DF80000C2208DF80100C4208DF8020015
:10435000C6208DF8030004E08B220421684602F099
:1043600072FE6A46042140F69820FFF703F8FDF735
:104370005BFC38BD3EB504466CB1FDA1D1E900201F
:104380008968CDE9002002916A4609214FF49760BF
:10439000FEF7F0FF3EBDF9A2D2E900109268CDE928
:1043A000010200916A4609214FF49760FEF7E2FF8F
:1043B000F0E73EB5044602208DF80000CA208DF8D3
:1043C0000100E3208DF8020009208DF803006A4601
:1043D00004216820FEF7CEFFA3208DF8000004F032
:1043E000400048B1C0208DF80100C8208DF80200BF
:1043F000C2208DF8030006E0A3208DF801008DF89F
:1044000002008DF8030004F4C07048B1C4208DF898
:104410000400CC208DF80500C6208DF8060006E0CB
:10442000A3208DF804008DF805008DF80600A32068
:104430008DF807008DF808008DF809006A460A21FA
:1044400040F6A720FEF796FF04F0030018B12020E5
:104450008DF8000002E0D8208DF800006A460121A6
:1044600040F6B620FEF786FF04F0200018B10120C8
:10447000FFF780FF02E00020FFF77CFF04F4C0702C
:1044800008B304F4807060B1B2208DF800008B2076
:104490008DF80100B6208DF802009B208DF80300F6
:1044A0000BE0B0208DF8000080208DF80100B420D2
:1044B0008DF8020090208DF803006A46042140F632
:1044C000A220FEF757FF04F0010020B3F8208DF87A
:1044D00000006A4601214FF40B60FEF74BFFFA2102
:1044E0000720FFF729FD0720FFF7ECFD0120FFF76C
:1044F0000CFE6420FFF71CFE4FF4FA70FFF72BFE52
:10450000C821A148FFF73AFE2820FFF753FE0A20F2
:10451000FFF763FE08E0D8208DF800006A4601210D
:104520004FF40B60FEF726FF04F0020018B1D9200B
:104530008DF8000002E0D8208DF800006A460121C5
:1045400040F23D70FEF716FF04F0040018B10120A0
:10455000FFF7F2FE02E00020FFF7EEFE04F010008D
:1045600018B10120FFF7BEFE02E00020FFF7BAFEFF
:1045700044F0080085494881FDF756FB0020834937
:10458000887304F0400018B10846807B801D887352
:1045900004F4C07020B17D48807B801D7B49887306
:1045A00004F0140020B17948807B1030774988737B
:1045B00004F0030020B17548807B001D73498873A7
:1045C00000203EBD014671484089088000207047A8
:1045D0002DE9F0410446E07800F0C006E07800F0F4
:1045E0003F05607800F0010098B1EF102846E91708
:1045F00005EB5171C910A5EBC101491C01F0FF0881
:104600006248006820B161484146026838469047D8
:1046100000BF607800F0080030B15C48406818B115
:10462000B0115A4A516888470020BDE8F08110B5A2
:1046300086B0044656A207CA03AB07C357A207CAEF
:104640008DE80700012C09D0022C0ED103AA0B2102
:1046500040F68220FEF78EFE06B010BD6A460B21A2
:1046600040F68220FEF786FEF6E74FF0FF30F3E7D4
:104670002DE9F04F8DB00746884615469946DDE98D
:10468000166B0024002030804049887B5A4605A9DB
:10469000FEF7D3F918B1601E0DB0BDE8F08F3B48AE
:1046A000807A00F01400002861D09DF81400000604
:1046B0009DF8151040EA01409DF8161040EA0120CF
:1046C0009DF81710084328609DF8180000069DF813
:1046D000191040EA01409DF81A1040EA01209DF8A7
:1046E0001B10084368609DF81C0000069DF81D1013
:1046F00040EA01409DF81E1040EA01209DF81F107D
:104700000843A8609DF8200000069DF8211040EAAB
:1047100001409DF8221040EA01209DF82310084333
:10472000E86004F11000C4B22868001401906868C1
:1047300000140290A86800140390E8680014049024
:1047400001984043029901FB0100039901FB01001C
:10475000049901FB010ABAF1706F02DBBAF1885FBC
:1047600022DDFDF761FA00203080401E94E721E051
:10477000B8AAB38DB4980D355D000000B8AAAAAAF6
:10478000B088C3C5C700000009E3CA02E4040020E2
:10479000D8B1B9F38BA391B609B4D900DAB1B9F3A2
:1047A0008BA391B6DAB4DA00B6F9000040F4807059
:1047B000308000BF3448807A00F0400020B305A963
:1047C000601C085C095D40EA012000B2A8F8000006
:1047D00005A9E01C095C05AAA01C105C41EA0020A8
:1047E00000B2A8F8020005A9601D095C201D105C3C
:1047F00041EA002000B2A8F80400A01DC4B2B6F936
:10480000000040F0080030801F48408900F4C0706C
:1048100008B305A9601C085C095D40EA012000B2EC
:10482000388005A9E01C095C05AAA01C105C41EABF
:10483000002000B2788005A9601D095C201D105C75
:1048400041EA002000B2B880A01DC4B2B6F9000051
:1048500040F0700030800C48807A00F0030018B1FE
:1048600005A90819FFF7B4FE4846FDF74AFD0020E8
:1048700012E70146044801600020704701460248E3
:104880004160002070470000E404002070B5044639
:104890000021204605F0F2F802D284F0004500E045
:1048A0002546284670BDF8B59A4804680068FFF7A9
:1048B000EDFF05460021204605F0E0F812D20C235A
:1048C00095A20F212020FCF714FC284605F08AF859
:1048D00006460C20032332460F2100902420FCF7CB
:1048E000BEFB11E00C238DA20F212020FCF701FC60
:1048F000284605F077F806460C20032332460F21A0
:1049000000902420FCF7ABFBFCF77CFAF8BD2DE906
:10491000F04100258248006805F084F80746FFF75B
:10492000B5FF064605F042F8044641F6C810844239
:1049300000DD00247A48006800281BDD79480088E3
:10494000284481B2784801F0E1FD7848008820448D
:1049500081B2754801F0DCFD75480088204481B2C1
:10496000714801F0D7FD73480088284481B26E4831
:1049700001F0D2FD6A48006800281BDA6948008807
:10498000204481B2684801F0C1FD6848008828448D
:1049900081B2654801F0BCFD65480088284481B2B9
:1049A000614801F0B7FD63480088204481B25E4849
:1049B00001F0B2FDBDE8F0812DE9F34F87B08946E3
:1049C0000021079805F05AF82DD24FF082415A483D
:1049D000006805F087F8054604F058FE82468B46CD
:1049E000484604F062FB0746544A554B04F074FBFA
:1049F00005460E465349079805F074F8074604F03B
:104A000045FE2A463346CDE9000104F017F9524627
:104A10005B46CDE9020104F011F9CDE9040104F08F
:104A200015FB04462BE04FF082414348006805F037
:104A300059F8054604F02AFECDE90201484604F083
:104A400034FB07463D4A3E4B04F046FB05460E4606
:104A50003C49079805F046F8074604F017FE8246E1
:104A60002A46334604F0EAF8CDE90001DDE90223E5
:104A700004F022FDCDE9040104F0E8FA04462046E2
:104A800009B0BDE8F08F10B501212F4801F06FFD8E
:104A900018B101212C4801F07BFD2C492C480068FD
:104AA00005F020F8244908602A48B0F90010194898
:104AB0000068FFF781FF1A490860FFF728FF002010
:104AC0002349086010BD10B50121234801F04FFDB6
:104AD00018B10121204801F05BFDFEF708FF1F4AD5
:104AE0001C491F48FCF74DFE10BD10B502214807B8
:104AF00001F03DFD01280BD14FF07E5114480068B4
:104B000004F0F0FD124908600221480701F040FD61
:104B100010BD00000C0000202D0000002B00000044
:104B2000AC0000209C00002000040040A0000020F9
:104B3000A4000020A8000020300000209A99999934
:104B40009999F13F008089C4001000400000704135
:104B50002C00002020000020001400402200002033
:104B60001E00002010B540F22551714801F0D4FE1E
:104B7000F8B16F4801F050FEC4B26E48008800F4EE
:104B80000040B0B96B480088B0F5C87F12DA002148
:104B9000694801F0B7FC6748008810B90120FCF7AC
:104BA000ABF8644801880088401C624A1080634862
:104BB000445405E05F48008840F400405D490880A7
:104BC00010BD70B58CB006460C461546012108464E
:104BD00000F063FD304601F0E3FE019402951020E1
:104BE00003900020049005908020069000200790FC
:104BF000089009904FF480500A9000200B9001A972
:104C0000304601F06FFF0CB070BD10B586B00446A1
:104C10000121042000F04EFD0121480400F057FD61
:104C2000434801F0B9FC0420ADF8100003208DF8D2
:104C3000120018208DF8130004A9414800F07EFAF4
:104C40000820ADF8100004208DF8130004A93C489A
:104C500000F074FA00940020ADF80400ADF80600EE
:104C6000ADF80800ADF80C000C20ADF80A0069465C
:104C70002F4801F0D4FC012280212D4801F08CFD49
:104C8000304A2B49091D3048FFF79BFF0121284876
:104C900001F051FD012240F22551254801F057FD58
:104CA00026208DF8140002208DF8150003208DF8C1
:104CB000160001208DF8170005A800F076F941F6DE
:104CC0001F4140F2CF70FCF73CF8002019490880E2
:104CD000FCF712F806B010BD70B504460D46002171
:104CE000204601F02AFF2946204601F03BFF012122
:104CF000204601F022FF70BD0FB438B505A8009022
:104D00001048009A049901F09BFF0020009000BF1A
:104D10000D4801F029FF0028FAD10A4802F074F981
:104D2000C4B221460848FFF7D7FF38BC5DF814FB32
:104D300000440040C0000020000800408806002019
:104D400000080140F80400208000024010B56FF018
:104D5000040000F074F92E4800682E49B0FBF1F011
:104D60002D4908700846007800EB4001C1EBC010E7
:104D70004FF6FF7101EAC0002849088010BD0146C6
:104D8000254A12784A434FF0E0235A6100229A6183
:104D90001A46126942F001021A6100BF4FF0E02288
:104DA000106900F001021AB100F48032002AF5D037
:104DB0004FF0E022126922F001024FF0E0231A6165
:104DC00000229A6170470146144A12884A434FF004
:104DD000E0235A6100229A611A46126942F00102E8
:104DE0001A6100BF4FF0E022106900F001021AB111
:104DF00000F48032002AF5D04FF0E022126922F050
:104E000001024FF0E0231A6100229A61704700000E
:104E10004C00002000127A00C2000020C4000020D4
:104E2000014600BF704700BF494A128802F04002A5
:104E3000002AF9D0C2B2464B1B1D1A80704710B52C
:104E400086B00446012144F2040000F033FC4FF424
:104E50000070ADF8140003208DF8160018208DF8AE
:104E6000170005A93B4800F069F94FF48060ADF8E0
:104E7000140004208DF8170005A9364800F05EF9EB
:104E800025208DF8000003208DF801008DF8020028
:104E900001208DF80300684600F087F80194002097
:104EA000ADF80800ADF80A00ADF80C00ADF8100040
:104EB0000C20ADF80E0001A9254801F0B0FB01223D
:104EC00040F22551224801F042FC0121204801F026
:104ED00032FC06B010BD10B540F225511C4801F05F
:104EE0001BFD10B31A4801F097FCC4B21A480088A1
:104EF00000F40040C8B91848008800F4804060B150
:104F00000A2C03D000201449088020E012480088B1
:104F100040F400401049088019E00D2C06D10E48DD
:104F2000008840F480400C49088010E00A4800885E
:104F3000C0F30D0009490C5407480088401C06497D
:104F4000088008460088C72801DD0020088010BDC1
:104F50000038014000080140CC0000201808002063
:104F60000948804709480047FEE7FEE7FEE7FEE7FD
:104F7000FEE7FEE7FEE7FEE7FEE7FEE70448054939
:104F8000054A064B7047000023080008310100085D
:104F900040090020400F0020400B0020400B002063
:104FA00031490143314A1160704770B50021002337
:104FB0000F22C47804B32D4C246804F4E064C4F5D3
:104FC000E064210AC1F10403CA40447804FA03F101
:104FD0008478144021430901254C0678A1550478B2
:104FE00004F01F050124AC4005786D11AD0005F1FA
:104FF000E025C5F8004109E0047804F01F0501240C
:10500000AC401C4D0678761145F8264070BD1A4A12
:105010000A400243154B1B1F1A60704739B1134AEF
:10502000121D12680243114B1B1D1A6006E00F4A45
:10503000121D126882430D4B1B1D1A607047042815
:1050400008D14FF0E021096941F004014FF0E0225E
:10505000116107E04FF0E021096921F004014FF0F0
:10506000E0221161704700000000FA050CED00E03D
:1050700000E400E080E100E080FFFF1F10B504467F
:10508000CC48844208D10121042000F02DFB0021EE
:10509000042000F029FB46E0C748844208D10121E2
:1050A000082000F021FB0021082000F01DFB3AE061
:1050B000C248844208D10121102000F015FB0021D4
:1050C000102000F011FB2EE0BD48844208D10121E0
:1050D000202000F009FB0021202000F005FB22E049
:1050E000B848844208D10121402000F0FDFA002197
:1050F000402000F0F9FA16E0B348844208D10121BB
:10510000802000F0F1FA0021802000F0EDFA0AE0A2
:10511000AE48844207D10121801500F0E5FA002154
:10512000A01500F0E1FA10BD10B50121084600F00D
:10513000DBFA0021012000F0D7FA10BD2DE9F04183
:10514000024600250026002000230024002791F8B5
:1051500003C00CF00F0591F803C00CF0100CBCF16B
:10516000000F03D091F802C04CEA050591F800C089
:10517000BCF1000F31D0146800202BE04FF0010C7F
:105180000CFA00F3B1F800C00CEA03069E4220D1ED
:1051900083004FF00F0C0CFA03F7BC4305FA03FC35
:1051A0004CEA040491F803C0BCF1280F06D14FF07B
:1051B000010C0CFA00FCC2F814C00AE091F803C01C
:1051C000BCF1480F05D14FF0010C0CFA00FCC2F8FD
:1051D00010C0401C0828D1D31460B1F800C0BCF145
:1051E000FF0F34DD546800202EE000F1080C4FF072
:1051F000010808FA0CF3B1F800C00CEA03069E425D
:1052000021D183004FF00F0C0CFA03F7BC4305FAD1
:1052100003FC4CEA040491F803C0BCF1280F05D14B
:1052200000F1080C08FA0CF8C2F8148091F803C0D9
:10523000BCF1480F07D100F1080C4FF0010808FA43
:105240000CF8C2F81080401C0828CED35460BDE88A
:10525000F0814FF6FF710180022181700421C1703D
:1052600070470246002093680B400BB1012000E01C
:10527000002070470146886880B2704702460020CF
:10528000D3680B400BB1012000E0002070470146BD
:10529000C86880B2704701617047416170470AB1C8
:1052A000016100E041617047C16070474FF4803296
:1052B0000A43826181618261826982697047024624
:1052C0000020434B18684FF68073184040EA0210E4
:1052D00008433F4B186070473E49C8617047F0B5BE
:1052E0000A46002300240021002500F00046B6F104
:1052F000004F02D1364EF16901E0354E7168C0F3BE
:10530000034583B200F44016B6F5401F08D121F0E2
:1053100070612F4E766826F070662D4F7E6012E029
:1053200000F48016B6F5801F06D1032606FA05F4B0
:10533000A14341F0706106E0460D360103FA06F61E
:10534000B14341F0706122B1460D360103FA06F611
:10535000314300F00046B6F1004F02D11C4EF1611E
:1053600001E01B4E7160F0BD30B500228B071C0FB1
:105370000F2303FA04F2164B08338C1053F8243031
:105380009343134C08348D1044F8253023468C1079
:1053900053F824308C07240F00FA04F423430C4CF8
:1053A00008348D1044F8253030BD0A49DC310860DE
:1053B0007047000000080140000C0140001001404F
:1053C0000014014000180140001C01400020014071
:1053D0000000014000002042DF48006840F001006A
:1053E000DD49086008464068DC490840DA49486001
:1053F00008460068DA490840D7490860084600684E
:1054000020F4802008600846406820F4FE004860D0
:105410004FF41F0088607047CF49096821F480313C
:10542000CD4A11601146096821F480211160B0F560
:10543000803F03D0B0F5802F0ED106E0C649096841
:1054400041F48031C44A116007E0C349096841F45E
:10545000A021C14A116000E000BF00BF704710B535
:1054600001460022002300204A11012A02D1BA4C31
:10547000236806E0022A02D1B74C236A01E0B64C49
:10548000636A01F01F02012494401C400CB101200A
:1054900000E0002010BD38B5002000900024002559
:1054A00000BF3120FFF7DBFF05460098401C00904D
:1054B0000098B0F5A06F01D0002DF2D03120FFF799
:1054C000CEFF08B1012400E00024204638BD01468B
:1054D0000020A14A106820F0F80040EAC1001060E6
:1054E0007047A04908607047024600209A4B5868F0
:1054F00020F47C1042EA01031843974B5860704730
:1055000098490866704701460020934A506820F089
:1055100003000843506070478F48406800F00C005B
:105520007047014600208C4A506820F0F000084384
:105530005060704701460020874A506820F4E060C0
:1055400008435060704701460020834A506820F4A9
:10555000605040EAC1005060704729B17E4A527ADB
:1055600002437D4B5A7204E07B4A527A82437A4B63
:105570005A7270477B49D831086070470146002055
:10558000754A506820F4404008435060704700213D
:10559000714A20321170704A82F82010012802D01E
:1055A00004280AD104E001216B4A2032117005E081
:1055B0000521694A2032117000E000BF00BF70472A
:1055C0006949086070476449096A0143624A116287
:1055D0007047654944390860704730B500210022A2
:1055E000002400235C4D6D6805F00C0121B10429F5
:1055F00005D0082923D105E05C4D056022E05B4D14
:1056000005601FE0544D6D6805F47012524D6D68D1
:1056100005F48034022505EB92421CB9544D5543E4
:1056200005600BE04C4D6D6805F400351DB1504D23
:105630005543056002E04D4D5543056002E04B4D7A
:10564000056000BF00BF444D6D6805F0F001090919
:10565000484D6B5C0568DD4045603F4D6D6805F465
:10566000E061090A434D6B5C4568DD4085603A4D59
:105670006D6805F46051C90A3E4D6B5C4568DD40BC
:10568000C560354D6D6805F44041890B3A4D6B5C42
:10569000C568B5FBF3F5056130BD29B12E4A5269E5
:1056A00002432D4B5A6104E02B4A526982432A4B34
:1056B0005A61704729B1284A92690243264B9A6180
:1056C00004E0254A92698243234B9A61704729B1CD
:1056D000214AD2690243204BDA6104E01E4AD269B2
:1056E00082431D4BDA61704729B11B4AD2680243DD
:1056F000194BDA6004E0184AD2688243164BDA602C
:10570000704729B1144A12690243134B1A6104E02D
:10571000114A12698243104B1A617047124940398D
:10572000086070470F49C86470470B49C8717047DB
:105730000948406A40F08070074948627047014656
:105740000020054A92680A400AB1012000E00020CA
:105750007047014988727047001002400000FFF84E
:10576000FFFFF6FE000042428004424200127A002F
:1057700000093D00CE000020DE00002010B50446E8
:10578000FE48844208D10121C014FFF7ADFF00217B
:10579000E014FFF7A9FFC4E0B4F1804F08D1012164
:1057A0000846FFF7AEFF00210120FFF7AAFFB8E08F
:1057B000F348844208D101210220FFF7A2FF002113
:1057C0000220FFF79EFFACE0EE48844208D10121A1
:1057D0000420FFF796FF00210420FFF792FFA0E0CE
:1057E000E948844208D101210820FFF78AFF0021FF
:1057F0000820FFF786FF94E0E448844208D10121A5
:105800001020FFF77EFF00211020FFF77AFF88E0CD
:10581000DF48844208D101212020FFF772FF0021D8
:105820002020FFF76EFF7CE0DA48844208D1012196
:105830004014FFF759FF00216014FFF755FF70E097
:10584000D548844209D10121C804FFF74DFF00214A
:105850004FF40020FFF748FF63E0D048844209D1AD
:1058600001210805FFF740FF00214FF48010FFF7EA
:105870003BFF56E0CA48844209D101214805FFF7A1
:1058800033FF00214FF40010FFF72EFF49E0C54819
:10589000844208D101214020FFF733FF002140203E
:1058A000FFF72FFF3DE0C048844208D1012180204E
:1058B000FFF727FF00218020FFF723FF31E0BB48DF
:1058C000844208D101218015FFF71BFF0021A0159C
:1058D000FFF717FF25E0B648844209D101210804EB
:1058E000FFF702FF00214FF48030FFF7FDFE18E0C4
:1058F000B048844209D101214804FFF7F5FE002198
:105900004FF40030FFF7F0FE0BE0AB48844208D1C3
:1059100001218804FFF7E8FE00214FF48020FFF703
:10592000E3FE10BD00220288944B98420ED0994BA2
:1059300098420BD0B0F1804F08D0914B984205D0DF
:10594000904B984202D0904B984204D14FF68F73FF
:105950001A404B881A438D4B984207D08C4B984283
:1059600004D04FF6FF431A40CB881A4302808B883D
:1059700083850B880385814B98420BD0854B9842D9
:1059800008D08B4B984205D08A4B984202D08A4B64
:10599000984201D10B7A038601238382704770B548
:1059A000002400220023058C4FF6FE763540058446
:1059B000028C8388048B4FF68F752C40B51E2C40CB
:1059C0000D882C43751E2A400D892A434D882A4391
:1059D0006A4DA8420BD06F4DA84208D0744DA84222
:1059E00005D0744DA84202D0734DA84213D14FF692
:1059F000F7752A404D892A434FF6FB752A408D885A
:105A00002A434FF6FF652B404FF6FF552B408D89FB
:105A10002B43CD892B4383800483CD8885860284E4
:105A200070BD70B5002400220023058C4FF6EF7680
:105A300035400584028C8388048B48F6FF752C4022
:105A40004FF6FF452C400D884FF6FF7606EA0525F8
:105A50002C434FF6DF752A400D8906EA05152A43C7
:105A60004D8806EA05152A43444DA84202D0494D07
:105A7000A8421DD14FF67F752A404D894FF6FF761B
:105A800006EA05152A434FF6BF752A408D8806EAB7
:105A900005152A434FF6FF352B404FF2FF752B407B
:105AA0008D8906EA85052B43CD8906EA85052B43BA
:105AB00083800483CD880587028470BD70B500247F
:105AC00000220023058C4FF6FF6635400584028CCA
:105AD0008388848B4FF68F752C404FF6FC752C40D5
